{
  "_format": "hh-sol-artifact-1",
  "contractName": "CrowdFunding",
  "sourceName": "contracts/CrowdFunding.sol",
  "abi": [
    {
      "inputs": [],
      "stateMutability": "nonpayable",
      "type": "constructor"
    },
    {
      "inputs": [
        {
          "internalType": "uint256",
          "name": "",
          "type": "uint256"
        },
        {
          "internalType": "address",
          "name": "",
          "type": "address"
        }
      ],
      "name": "campaignDonations",
      "outputs": [
        {
          "internalType": "uint256",
          "name": "",
          "type": "uint256"
        }
      ],
      "stateMutability": "view",
      "type": "function"
    },
    {
      "inputs": [
        {
          "internalType": "uint256",
          "name": "",
          "type": "uint256"
        }
      ],
      "name": "campaigns",
      "outputs": [
        {
          "internalType": "address",
          "name": "owner",
          "type": "address"
        },
        {
          "internalType": "string",
          "name": "title",
          "type": "string"
        },
        {
          "internalType": "string",
          "name": "description",
          "type": "string"
        },
        {
          "internalType": "uint256",
          "name": "target",
          "type": "uint256"
        },
        {
          "internalType": "uint256",
          "name": "deadline",
          "type": "uint256"
        },
        {
          "internalType": "uint256",
          "name": "amountCollected",
          "type": "uint256"
        },
        {
          "internalType": "string",
          "name": "image",
          "type": "string"
        }
      ],
      "stateMutability": "view",
      "type": "function"
    },
    {
      "inputs": [
        {
          "internalType": "address",
          "name": "_owner",
          "type": "address"
        },
        {
          "internalType": "string",
          "name": "_title",
          "type": "string"
        },
        {
          "internalType": "string",
          "name": "_description",
          "type": "string"
        },
        {
          "internalType": "uint256",
          "name": "_target",
          "type": "uint256"
        },
        {
          "internalType": "uint256",
          "name": "_deadline",
          "type": "uint256"
        },
        {
          "internalType": "string",
          "name": "_image",
          "type": "string"
        }
      ],
      "name": "createCampaign",
      "outputs": [
        {
          "internalType": "uint256",
          "name": "",
          "type": "uint256"
        }
      ],
      "stateMutability": "nonpayable",
      "type": "function"
    },
    {
      "inputs": [
        {
          "internalType": "uint256",
          "name": "_id",
          "type": "uint256"
        }
      ],
      "name": "donateToCampaign",
      "outputs": [],
      "stateMutability": "payable",
      "type": "function"
    },
    {
      "inputs": [],
      "name": "getCampaigns",
      "outputs": [
        {
          "components": [
            {
              "internalType": "address",
              "name": "owner",
              "type": "address"
            },
            {
              "internalType": "string",
              "name": "title",
              "type": "string"
            },
            {
              "internalType": "string",
              "name": "description",
              "type": "string"
            },
            {
              "internalType": "uint256",
              "name": "target",
              "type": "uint256"
            },
            {
              "internalType": "uint256",
              "name": "deadline",
              "type": "uint256"
            },
            {
              "internalType": "uint256",
              "name": "amountCollected",
              "type": "uint256"
            },
            {
              "internalType": "string",
              "name": "image",
              "type": "string"
            },
            {
              "internalType": "address[]",
              "name": "donators",
              "type": "address[]"
            },
            {
              "internalType": "uint256[]",
              "name": "donations",
              "type": "uint256[]"
            }
          ],
          "internalType": "struct CrowdFunding.Campaign[]",
          "name": "",
          "type": "tuple[]"
        }
      ],
      "stateMutability": "view",
      "type": "function"
    },
    {
      "inputs": [
        {
          "internalType": "uint256",
          "name": "_id",
          "type": "uint256"
        }
      ],
      "name": "getDonators",
      "outputs": [
        {
          "internalType": "address[]",
          "name": "",
          "type": "address[]"
        },
        {
          "internalType": "uint256[]",
          "name": "",
          "type": "uint256[]"
        }
      ],
      "stateMutability": "view",
      "type": "function"
    },
    {
      "inputs": [],
      "name": "numberOfCampaigns",
      "outputs": [
        {
          "internalType": "uint256",
          "name": "",
          "type": "uint256"
        }
      ],
      "stateMutability": "view",
      "type": "function"
    },
    {
      "inputs": [
        {
          "internalType": "uint256",
          "name": "_id",
          "type": "uint256"
        }
      ],
      "name": "refund",
      "outputs": [],
      "stateMutability": "nonpayable",
      "type": "function"
    },
    {
      "inputs": [
        {
          "internalType": "uint256",
          "name": "_id",
          "type": "uint256"
        }
      ],
      "name": "withdrawFunds",
      "outputs": [],
      "stateMutability": "nonpayable",
      "type": "function"
    }
  ],
  "bytecode": "0x60806040526000600255348015601457600080fd5b506122b8806100246000396000f3fe6080604052600436106100865760003560e01c8063278ecde111610059578063278ecde11461016057806342a4fda814610189578063564a7ac1146101a55780639943e3a1146101e2578063a6b036331461021f57610086565b806307ca140d1461008b5780630fa91fa9146100b6578063141961bc146100f4578063155dd5ee14610137575b600080fd5b34801561009757600080fd5b506100a061024a565b6040516100ad91906110cd565b60405180910390f35b3480156100c257600080fd5b506100dd60048036038101906100d89190611128565b610250565b6040516100eb929190611303565b60405180910390f35b34801561010057600080fd5b5061011b60048036038101906101169190611128565b610360565b60405161012e97969594939291906113d9565b60405180910390f35b34801561014357600080fd5b5061015e60048036038101906101599190611128565b61055a565b005b34801561016c57600080fd5b5061018760048036038101906101829190611128565b61077d565b005b6101a3600480360381019061019e9190611128565b6109c3565b005b3480156101b157600080fd5b506101cc60048036038101906101c79190611489565b610b38565b6040516101d991906110cd565b60405180910390f35b3480156101ee57600080fd5b50610209600480360381019061020491906115fe565b610b5d565b60405161021691906110cd565b60405180910390f35b34801561022b57600080fd5b50610234610c82565b60405161024191906119aa565b60405180910390f35b60025481565b606080600080848152602001908152602001600020600701600080858152602001908152602001600020600801818054806020026020016040519081016040528092919081815260200182805480156102fe57602002820191906000526020600020905b8160009054906101000a900473ffffffffffffffffffffffffffffffffffffffff1673ffffffffffffffffffffffffffffffffffffffff16815260200190600101908083116102b4575b505050505091508080548060200260200160405190810160405280929190818152602001828054801561035057602002820191906000526020600020905b81548152602001906001019080831161033c575b5050505050905091509150915091565b60006020528060005260406000206000915090508060000160009054906101000a900473ffffffffffffffffffffffffffffffffffffffff16908060010180546103a9906119fb565b80601f01602080910402602001604051908101604052809291908181526020018280546103d5906119fb565b80156104225780601f106103f757610100808354040283529160200191610422565b820191906000526020600020905b81548152906001019060200180831161040557829003601f168201915b505050505090806002018054610437906119fb565b80601f0160208091040260200160405190810160405280929190818152602001828054610463906119fb565b80156104b05780601f10610485576101008083540402835291602001916104b0565b820191906000526020600020905b81548152906001019060200180831161049357829003601f168201915b5050505050908060030154908060040154908060050154908060060180546104d7906119fb565b80601f0160208091040260200160405190810160405280929190818152602001828054610503906119fb565b80156105505780601f1061052557610100808354040283529160200191610550565b820191906000526020600020905b81548152906001019060200180831161053357829003601f168201915b5050505050905087565b600080600083815260200190815260200160002090508060000160009054906101000a900473ffffffffffffffffffffffffffffffffffffffff1673ffffffffffffffffffffffffffffffffffffffff163373ffffffffffffffffffffffffffffffffffffffff1614610602576040517f08c379a00000000000000000000000000000000000000000000000000000000081526004016105f990611a78565b60405180910390fd5b80600301548160050154101561064d576040517f08c379a000000000000000000000000000000000000000000000000000000000815260040161064490611ae4565b60405180910390fd5b6000816005015411610694576040517f08c379a000000000000000000000000000000000000000000000000000000000815260040161068b90611b50565b60405180910390fd5b6000816005015490506000826005018190555060008260000160009054906101000a900473ffffffffffffffffffffffffffffffffffffffff1673ffffffffffffffffffffffffffffffffffffffff16826040516106f190611ba1565b60006040518083038185875af1925050503d806000811461072e576040519150601f19603f3d011682016040523d82523d6000602084013e610733565b606091505b5050905080610777576040517f08c379a000000000000000000000000000000000000000000000000000000000815260040161076e90611c02565b60405180910390fd5b50505050565b60008060008381526020019081526020016000209050806004015442116107d9576040517f08c379a00000000000000000000000000000000000000000000000000000000081526004016107d090611c6e565b60405180910390fd5b8060030154816005015410610823576040517f08c379a000000000000000000000000000000000000000000000000000000000815260040161081a90611d00565b60405180910390fd5b60006001600084815260200190815260200160002060003373ffffffffffffffffffffffffffffffffffffffff1673ffffffffffffffffffffffffffffffffffffffff168152602001908152602001600020549050600081116108bb576040517f08c379a00000000000000000000000000000000000000000000000000000000081526004016108b290611d6c565b60405180910390fd5b60006001600085815260200190815260200160002060003373ffffffffffffffffffffffffffffffffffffffff1673ffffffffffffffffffffffffffffffffffffffff1681526020019081526020016000208190555060003373ffffffffffffffffffffffffffffffffffffffff168260405161093790611ba1565b60006040518083038185875af1925050503d8060008114610974576040519150601f19603f3d011682016040523d82523d6000602084013e610979565b606091505b50509050806109bd576040517f08c379a00000000000000000000000000000000000000000000000000000000081526004016109b490611dd8565b60405180910390fd5b50505050565b60003490506000806000848152602001908152602001600020905080600401544210610a24576040517f08c379a0000000000000000000000000000000000000000000000000000000008152600401610a1b90611e44565b60405180910390fd5b818160050154610a349190611e93565b816005018190555080600701339080600181540180825580915050600190039060005260206000200160009091909190916101000a81548173ffffffffffffffffffffffffffffffffffffffff021916908373ffffffffffffffffffffffffffffffffffffffff16021790555080600801829080600181540180825580915050600190039060005260206000200160009091909190915055816001600085815260200190815260200160002060003373ffffffffffffffffffffffffffffffffffffffff1673ffffffffffffffffffffffffffffffffffffffff1681526020019081526020016000206000828254610b2c9190611e93565b92505081905550505050565b6001602052816000526040600020602052806000526040600020600091509150505481565b6000428311610ba1576040517f08c379a0000000000000000000000000000000000000000000000000000000008152600401610b9890611f39565b60405180910390fd5b600080600060025481526020019081526020016000209050878160000160006101000a81548173ffffffffffffffffffffffffffffffffffffffff021916908373ffffffffffffffffffffffffffffffffffffffff16021790555086816001019081610c0d9190612105565b5085816002019081610c1f9190612105565b508481600301819055508381600401819055506000816005018190555082816006019081610c4d9190612105565b5060026000815480929190610c61906121d7565b91905055506001600254610c75919061221f565b9150509695505050505050565b6060600060025467ffffffffffffffff811115610ca257610ca16114d3565b5b604051908082528060200260200182016040528015610cdb57816020015b610cc8611052565b815260200190600190039081610cc05790505b50905060005b60025481101561104a576000806000838152602001908152602001600020905080604051806101200160405290816000820160009054906101000a900473ffffffffffffffffffffffffffffffffffffffff1673ffffffffffffffffffffffffffffffffffffffff1673ffffffffffffffffffffffffffffffffffffffff168152602001600182018054610d74906119fb565b80601f0160208091040260200160405190810160405280929190818152602001828054610da0906119fb565b8015610ded5780601f10610dc257610100808354040283529160200191610ded565b820191906000526020600020905b815481529060010190602001808311610dd057829003601f168201915b50505050508152602001600282018054610e06906119fb565b80601f0160208091040260200160405190810160405280929190818152602001828054610e32906119fb565b8015610e7f5780601f10610e5457610100808354040283529160200191610e7f565b820191906000526020600020905b815481529060010190602001808311610e6257829003601f168201915b50505050508152602001600382015481526020016004820154815260200160058201548152602001600682018054610eb6906119fb565b80601f0160208091040260200160405190810160405280929190818152602001828054610ee2906119fb565b8015610f2f5780601f10610f0457610100808354040283529160200191610f2f565b820191906000526020600020905b815481529060010190602001808311610f1257829003601f168201915b5050505050815260200160078201805480602002602001604051908101604052809291908181526020018280548015610fbd57602002820191906000526020600020905b8160009054906101000a900473ffffffffffffffffffffffffffffffffffffffff1673ffffffffffffffffffffffffffffffffffffffff1681526020019060010190808311610f73575b505050505081526020016008820180548060200260200160405190810160405280929190818152602001828054801561101557602002820191906000526020600020905b815481526020019060010190808311611001575b50505050508152505083838151811061103157611030612253565b5b6020026020010181905250508080600101915050610ce1565b508091505090565b604051806101200160405280600073ffffffffffffffffffffffffffffffffffffffff16815260200160608152602001606081526020016000815260200160008152602001600081526020016060815260200160608152602001606081525090565b6000819050919050565b6110c7816110b4565b82525050565b60006020820190506110e260008301846110be565b92915050565b6000604051905090565b600080fd5b600080fd5b611105816110b4565b811461111057600080fd5b50565b600081359050611122816110fc565b92915050565b60006020828403121561113e5761113d6110f2565b5b600061114c84828501611113565b91505092915050565b600081519050919050565b600082825260208201905092915050565b6000819050602082019050919050565b600073ffffffffffffffffffffffffffffffffffffffff82169050919050565b60006111ac82611181565b9050919050565b6111bc816111a1565b82525050565b60006111ce83836111b3565b60208301905092915050565b6000602082019050919050565b60006111f282611155565b6111fc8185611160565b935061120783611171565b8060005b8381101561123857815161121f88826111c2565b975061122a836111da565b92505060018101905061120b565b5085935050505092915050565b600081519050919050565b600082825260208201905092915050565b6000819050602082019050919050565b61127a816110b4565b82525050565b600061128c8383611271565b60208301905092915050565b6000602082019050919050565b60006112b082611245565b6112ba8185611250565b93506112c583611261565b8060005b838110156112f65781516112dd8882611280565b97506112e883611298565b9250506001810190506112c9565b5085935050505092915050565b6000604082019050818103600083015261131d81856111e7565b9050818103602083015261133181846112a5565b90509392505050565b611343816111a1565b82525050565b600081519050919050565b600082825260208201905092915050565b60005b83811015611383578082015181840152602081019050611368565b60008484015250505050565b6000601f19601f8301169050919050565b60006113ab82611349565b6113b58185611354565b93506113c5818560208601611365565b6113ce8161138f565b840191505092915050565b600060e0820190506113ee600083018a61133a565b818103602083015261140081896113a0565b9050818103604083015261141481886113a0565b905061142360608301876110be565b61143060808301866110be565b61143d60a08301856110be565b81810360c083015261144f81846113a0565b905098975050505050505050565b611466816111a1565b811461147157600080fd5b50565b6000813590506114838161145d565b92915050565b600080604083850312156114a05761149f6110f2565b5b60006114ae85828601611113565b92505060206114bf85828601611474565b9150509250929050565b600080fd5b600080fd5b7f4e487b7100000000000000000000000000000000000000000000000000000000600052604160045260246000fd5b61150b8261138f565b810181811067ffffffffffffffff8211171561152a576115296114d3565b5b80604052505050565b600061153d6110e8565b90506115498282611502565b919050565b600067ffffffffffffffff821115611569576115686114d3565b5b6115728261138f565b9050602081019050919050565b82818337600083830152505050565b60006115a161159c8461154e565b611533565b9050828152602081018484840111156115bd576115bc6114ce565b5b6115c884828561157f565b509392505050565b600082601f8301126115e5576115e46114c9565b5b81356115f584826020860161158e565b91505092915050565b60008060008060008060c0878903121561161b5761161a6110f2565b5b600061162989828a01611474565b965050602087013567ffffffffffffffff81111561164a576116496110f7565b5b61165689828a016115d0565b955050604087013567ffffffffffffffff811115611677576116766110f7565b5b61168389828a016115d0565b945050606061169489828a01611113565b93505060806116a589828a01611113565b92505060a087013567ffffffffffffffff8111156116c6576116c56110f7565b5b6116d289828a016115d0565b9150509295509295509295565b600081519050919050565b600082825260208201905092915050565b6000819050602082019050919050565b600082825260208201905092915050565b600061172782611349565b611731818561170b565b9350611741818560208601611365565b61174a8161138f565b840191505092915050565b600082825260208201905092915050565b600061177182611155565b61177b8185611755565b935061178683611171565b8060005b838110156117b757815161179e88826111c2565b97506117a9836111da565b92505060018101905061178a565b5085935050505092915050565b600082825260208201905092915050565b60006117e082611245565b6117ea81856117c4565b93506117f583611261565b8060005b8381101561182657815161180d8882611280565b975061181883611298565b9250506001810190506117f9565b5085935050505092915050565b60006101208301600083015161184c60008601826111b3565b5060208301518482036020860152611864828261171c565b9150506040830151848203604086015261187e828261171c565b91505060608301516118936060860182611271565b5060808301516118a66080860182611271565b5060a08301516118b960a0860182611271565b5060c083015184820360c08601526118d1828261171c565b91505060e083015184820360e08601526118eb8282611766565b91505061010083015184820361010086015261190782826117d5565b9150508091505092915050565b60006119208383611833565b905092915050565b6000602082019050919050565b6000611940826116df565b61194a81856116ea565b93508360208202850161195c856116fb565b8060005b8581101561199857848403895281516119798582611914565b945061198483611928565b925060208a01995050600181019050611960565b50829750879550505050505092915050565b600060208201905081810360008301526119c48184611935565b905092915050565b7f4e487b7100000000000000000000000000000000000000000000000000000000600052602260045260246000fd5b60006002820490506001821680611a1357607f821691505b602082108103611a2657611a256119cc565b5b50919050565b7f536f6c6f20696c2063726561746f72652070756f27207072656c657661726500600082015250565b6000611a62601f83611354565b9150611a6d82611a2c565b602082019050919050565b60006020820190508181036000830152611a9181611a55565b9050919050565b7f546172676574206e6f6e207261676769756e746f000000000000000000000000600082015250565b6000611ace601483611354565b9150611ad982611a98565b602082019050919050565b60006020820190508181036000830152611afd81611ac1565b9050919050565b7f4e657373756e20666f6e646f206461207072656c657661726500000000000000600082015250565b6000611b3a601983611354565b9150611b4582611b04565b602082019050919050565b60006020820190508181036000830152611b6981611b2d565b9050919050565b600081905092915050565b50565b6000611b8b600083611b70565b9150611b9682611b7b565b600082019050919050565b6000611bac82611b7e565b9150819050919050565b7f54726173666572696d656e746f2066616c6c69746f0000000000000000000000600082015250565b6000611bec601583611354565b9150611bf782611bb6565b602082019050919050565b60006020820190508181036000830152611c1b81611bdf565b9050919050565b7f4c612063616d7061676e61206e6f6e20652720616e636f726120636869757361600082015250565b6000611c58602083611354565b9150611c6382611c22565b602082019050919050565b60006020820190508181036000830152611c8781611c4b565b9050919050565b7f496c2074617267657420652720737461746f207261676769756e746f2c206e6960008201527f656e74652072696d626f72736900000000000000000000000000000000000000602082015250565b6000611cea602d83611354565b9150611cf582611c8e565b604082019050919050565b60006020820190508181036000830152611d1981611cdd565b9050919050565b7f4e6f6e2068616920646f6e617a696f6e692064612072696d626f727361726500600082015250565b6000611d56601f83611354565b9150611d6182611d20565b602082019050919050565b60006020820190508181036000830152611d8581611d49565b9050919050565b7f52696d626f72736f2066616c6c69746f00000000000000000000000000000000600082015250565b6000611dc2601083611354565b9150611dcd82611d8c565b602082019050919050565b60006020820190508181036000830152611df181611db5565b9050919050565b7f4c612063616d7061676e61206527207363616475746100000000000000000000600082015250565b6000611e2e601683611354565b9150611e3982611df8565b602082019050919050565b60006020820190508181036000830152611e5d81611e21565b9050919050565b7f4e487b7100000000000000000000000000000000000000000000000000000000600052601160045260246000fd5b6000611e9e826110b4565b9150611ea9836110b4565b9250828201905080821115611ec157611ec0611e64565b5b92915050565b7f4c612073636164656e7a61206465766520657373657265206e656c206675747560008201527f726f000000000000000000000000000000000000000000000000000000000000602082015250565b6000611f23602283611354565b9150611f2e82611ec7565b604082019050919050565b60006020820190508181036000830152611f5281611f16565b9050919050565b60008190508160005260206000209050919050565b60006020601f8301049050919050565b600082821b905092915050565b600060088302611fbb7fffffffffffffffffffffffffffffffffffffffffffffffffffffffffffffffff82611f7e565b611fc58683611f7e565b95508019841693508086168417925050509392505050565b6000819050919050565b6000612002611ffd611ff8846110b4565b611fdd565b6110b4565b9050919050565b6000819050919050565b61201c83611fe7565b61203061202882612009565b848454611f8b565b825550505050565b600090565b612045612038565b612050818484612013565b505050565b5b818110156120745761206960008261203d565b600181019050612056565b5050565b601f8211156120b95761208a81611f59565b61209384611f6e565b810160208510156120a2578190505b6120b66120ae85611f6e565b830182612055565b50505b505050565b600082821c905092915050565b60006120dc600019846008026120be565b1980831691505092915050565b60006120f583836120cb565b9150826002028217905092915050565b61210e82611349565b67ffffffffffffffff811115612127576121266114d3565b5b61213182546119fb565b61213c828285612078565b600060209050601f83116001811461216f576000841561215d578287015190505b61216785826120e9565b8655506121cf565b601f19841661217d86611f59565b60005b828110156121a557848901518255600182019150602085019450602081019050612180565b868310156121c257848901516121be601f8916826120cb565b8355505b6001600288020188555050505b505050505050565b60006121e2826110b4565b91507fffffffffffffffffffffffffffffffffffffffffffffffffffffffffffffffff820361221457612213611e64565b5b600182019050919050565b600061222a826110b4565b9150612235836110b4565b925082820390508181111561224d5761224c611e64565b5b92915050565b7f4e487b7100000000000000000000000000000000000000000000000000000000600052603260045260246000fdfea26469706673582212204fabeee15edfe8010bee94deb1d7b37bafb7c630883e82baa6b6809050f2e9da64736f6c634300081c0033",
  "linkReferences": {},
  "deployedLinkReferences": {}
}