{
  "_format": "hh-sol-artifact-1",
  "contractName": "CrowdFunding",
  "sourceName": "contracts/CrowdFunding.sol",
  "abi": [
    {
      "inputs": [],
      "stateMutability": "nonpayable",
      "type": "constructor"
    },
    {
      "inputs": [
        {
          "internalType": "uint256",
          "name": "",
          "type": "uint256"
        },
        {
          "internalType": "address",
          "name": "",
          "type": "address"
        }
      ],
      "name": "campaignDonations",
      "outputs": [
        {
          "internalType": "uint256",
          "name": "",
          "type": "uint256"
        }
      ],
      "stateMutability": "view",
      "type": "function"
    },
    {
      "inputs": [
        {
          "internalType": "uint256",
          "name": "",
          "type": "uint256"
        }
      ],
      "name": "campaigns",
      "outputs": [
        {
          "internalType": "address",
          "name": "owner",
          "type": "address"
        },
        {
          "internalType": "string",
          "name": "title",
          "type": "string"
        },
        {
          "internalType": "string",
          "name": "description",
          "type": "string"
        },
        {
          "internalType": "uint256",
          "name": "target",
          "type": "uint256"
        },
        {
          "internalType": "uint256",
          "name": "deadline",
          "type": "uint256"
        },
        {
          "internalType": "uint256",
          "name": "amountCollected",
          "type": "uint256"
        },
        {
          "internalType": "string",
          "name": "image",
          "type": "string"
        }
      ],
      "stateMutability": "view",
      "type": "function"
    },
    {
      "inputs": [
        {
          "internalType": "address",
          "name": "_owner",
          "type": "address"
        },
        {
          "internalType": "string",
          "name": "_title",
          "type": "string"
        },
        {
          "internalType": "string",
          "name": "_description",
          "type": "string"
        },
        {
          "internalType": "uint256",
          "name": "_target",
          "type": "uint256"
        },
        {
          "internalType": "uint256",
          "name": "_deadline",
          "type": "uint256"
        },
        {
          "internalType": "string",
          "name": "_image",
          "type": "string"
        }
      ],
      "name": "createCampaign",
      "outputs": [
        {
          "internalType": "uint256",
          "name": "",
          "type": "uint256"
        }
      ],
      "stateMutability": "nonpayable",
      "type": "function"
    },
    {
      "inputs": [
        {
          "internalType": "uint256",
          "name": "_id",
          "type": "uint256"
        }
      ],
      "name": "donateToCampaign",
      "outputs": [],
      "stateMutability": "payable",
      "type": "function"
    },
    {
      "inputs": [
        {
          "internalType": "uint256",
          "name": "_id",
          "type": "uint256"
        }
      ],
      "name": "getDonators",
      "outputs": [
        {
          "internalType": "address[]",
          "name": "",
          "type": "address[]"
        },
        {
          "internalType": "uint256[]",
          "name": "",
          "type": "uint256[]"
        }
      ],
      "stateMutability": "view",
      "type": "function"
    },
    {
      "inputs": [],
      "name": "numberOfCampaigns",
      "outputs": [
        {
          "internalType": "uint256",
          "name": "",
          "type": "uint256"
        }
      ],
      "stateMutability": "view",
      "type": "function"
    },
    {
      "inputs": [
        {
          "internalType": "uint256",
          "name": "_id",
          "type": "uint256"
        }
      ],
      "name": "refund",
      "outputs": [],
      "stateMutability": "nonpayable",
      "type": "function"
    },
    {
      "inputs": [
        {
          "internalType": "uint256",
          "name": "_id",
          "type": "uint256"
        }
      ],
      "name": "withdrawFunds",
      "outputs": [],
      "stateMutability": "nonpayable",
      "type": "function"
    }
  ],
  "bytecode": "0x60806040526000600255348015601457600080fd5b50611b34806100246000396000f3fe60806040526004361061007b5760003560e01c8063278ecde11161004e578063278ecde11461015557806342a4fda81461017e578063564a7ac11461019a5780639943e3a1146101d75761007b565b806307ca140d146100805780630fa91fa9146100ab578063141961bc146100e9578063155dd5ee1461012c575b600080fd5b34801561008c57600080fd5b50610095610214565b6040516100a29190610c65565b60405180910390f35b3480156100b757600080fd5b506100d260048036038101906100cd9190610cc0565b61021a565b6040516100e0929190610e9b565b60405180910390f35b3480156100f557600080fd5b50610110600480360381019061010b9190610cc0565b61032a565b6040516101239796959493929190610f71565b60405180910390f35b34801561013857600080fd5b50610153600480360381019061014e9190610cc0565b610524565b005b34801561016157600080fd5b5061017c60048036038101906101779190610cc0565b610747565b005b61019860048036038101906101939190610cc0565b61098d565b005b3480156101a657600080fd5b506101c160048036038101906101bc9190611021565b610b02565b6040516101ce9190610c65565b60405180910390f35b3480156101e357600080fd5b506101fe60048036038101906101f99190611196565b610b27565b60405161020b9190610c65565b60405180910390f35b60025481565b606080600080848152602001908152602001600020600701600080858152602001908152602001600020600801818054806020026020016040519081016040528092919081815260200182805480156102c857602002820191906000526020600020905b8160009054906101000a900473ffffffffffffffffffffffffffffffffffffffff1673ffffffffffffffffffffffffffffffffffffffff168152602001906001019080831161027e575b505050505091508080548060200260200160405190810160405280929190818152602001828054801561031a57602002820191906000526020600020905b815481526020019060010190808311610306575b5050505050905091509150915091565b60006020528060005260406000206000915090508060000160009054906101000a900473ffffffffffffffffffffffffffffffffffffffff1690806001018054610373906112a6565b80601f016020809104026020016040519081016040528092919081815260200182805461039f906112a6565b80156103ec5780601f106103c1576101008083540402835291602001916103ec565b820191906000526020600020905b8154815290600101906020018083116103cf57829003601f168201915b505050505090806002018054610401906112a6565b80601f016020809104026020016040519081016040528092919081815260200182805461042d906112a6565b801561047a5780601f1061044f5761010080835404028352916020019161047a565b820191906000526020600020905b81548152906001019060200180831161045d57829003601f168201915b5050505050908060030154908060040154908060050154908060060180546104a1906112a6565b80601f01602080910402602001604051908101604052809291908181526020018280546104cd906112a6565b801561051a5780601f106104ef5761010080835404028352916020019161051a565b820191906000526020600020905b8154815290600101906020018083116104fd57829003601f168201915b5050505050905087565b600080600083815260200190815260200160002090508060000160009054906101000a900473ffffffffffffffffffffffffffffffffffffffff1673ffffffffffffffffffffffffffffffffffffffff163373ffffffffffffffffffffffffffffffffffffffff16146105cc576040517f08c379a00000000000000000000000000000000000000000000000000000000081526004016105c390611323565b60405180910390fd5b806003015481600501541015610617576040517f08c379a000000000000000000000000000000000000000000000000000000000815260040161060e9061138f565b60405180910390fd5b600081600501541161065e576040517f08c379a0000000000000000000000000000000000000000000000000000000008152600401610655906113fb565b60405180910390fd5b6000816005015490506000826005018190555060008260000160009054906101000a900473ffffffffffffffffffffffffffffffffffffffff1673ffffffffffffffffffffffffffffffffffffffff16826040516106bb9061144c565b60006040518083038185875af1925050503d80600081146106f8576040519150601f19603f3d011682016040523d82523d6000602084013e6106fd565b606091505b5050905080610741576040517f08c379a0000000000000000000000000000000000000000000000000000000008152600401610738906114ad565b60405180910390fd5b50505050565b60008060008381526020019081526020016000209050806004015442116107a3576040517f08c379a000000000000000000000000000000000000000000000000000000000815260040161079a90611519565b60405180910390fd5b80600301548160050154106107ed576040517f08c379a00000000000000000000000000000000000000000000000000000000081526004016107e4906115ab565b60405180910390fd5b60006001600084815260200190815260200160002060003373ffffffffffffffffffffffffffffffffffffffff1673ffffffffffffffffffffffffffffffffffffffff16815260200190815260200160002054905060008111610885576040517f08c379a000000000000000000000000000000000000000000000000000000000815260040161087c90611617565b60405180910390fd5b60006001600085815260200190815260200160002060003373ffffffffffffffffffffffffffffffffffffffff1673ffffffffffffffffffffffffffffffffffffffff1681526020019081526020016000208190555060003373ffffffffffffffffffffffffffffffffffffffff16826040516109019061144c565b60006040518083038185875af1925050503d806000811461093e576040519150601f19603f3d011682016040523d82523d6000602084013e610943565b606091505b5050905080610987576040517f08c379a000000000000000000000000000000000000000000000000000000000815260040161097e90611683565b60405180910390fd5b50505050565b600034905060008060008481526020019081526020016000209050806004015442106109ee576040517f08c379a00000000000000000000000000000000000000000000000000000000081526004016109e5906116ef565b60405180910390fd5b8181600501546109fe919061173e565b816005018190555080600701339080600181540180825580915050600190039060005260206000200160009091909190916101000a81548173ffffffffffffffffffffffffffffffffffffffff021916908373ffffffffffffffffffffffffffffffffffffffff16021790555080600801829080600181540180825580915050600190039060005260206000200160009091909190915055816001600085815260200190815260200160002060003373ffffffffffffffffffffffffffffffffffffffff1673ffffffffffffffffffffffffffffffffffffffff1681526020019081526020016000206000828254610af6919061173e565b92505081905550505050565b6001602052816000526040600020602052806000526040600020600091509150505481565b6000428311610b6b576040517f08c379a0000000000000000000000000000000000000000000000000000000008152600401610b62906117e4565b60405180910390fd5b600080600060025481526020019081526020016000209050878160000160006101000a81548173ffffffffffffffffffffffffffffffffffffffff021916908373ffffffffffffffffffffffffffffffffffffffff16021790555086816001019081610bd791906119b0565b5085816002019081610be991906119b0565b508481600301819055508381600401819055506000816005018190555082816006019081610c1791906119b0565b5060026000815480929190610c2b90611a82565b91905055506001600254610c3f9190611aca565b9150509695505050505050565b6000819050919050565b610c5f81610c4c565b82525050565b6000602082019050610c7a6000830184610c56565b92915050565b6000604051905090565b600080fd5b600080fd5b610c9d81610c4c565b8114610ca857600080fd5b50565b600081359050610cba81610c94565b92915050565b600060208284031215610cd657610cd5610c8a565b5b6000610ce484828501610cab565b91505092915050565b600081519050919050565b600082825260208201905092915050565b6000819050602082019050919050565b600073ffffffffffffffffffffffffffffffffffffffff82169050919050565b6000610d4482610d19565b9050919050565b610d5481610d39565b82525050565b6000610d668383610d4b565b60208301905092915050565b6000602082019050919050565b6000610d8a82610ced565b610d948185610cf8565b9350610d9f83610d09565b8060005b83811015610dd0578151610db78882610d5a565b9750610dc283610d72565b925050600181019050610da3565b5085935050505092915050565b600081519050919050565b600082825260208201905092915050565b6000819050602082019050919050565b610e1281610c4c565b82525050565b6000610e248383610e09565b60208301905092915050565b6000602082019050919050565b6000610e4882610ddd565b610e528185610de8565b9350610e5d83610df9565b8060005b83811015610e8e578151610e758882610e18565b9750610e8083610e30565b925050600181019050610e61565b5085935050505092915050565b60006040820190508181036000830152610eb58185610d7f565b90508181036020830152610ec98184610e3d565b90509392505050565b610edb81610d39565b82525050565b600081519050919050565b600082825260208201905092915050565b60005b83811015610f1b578082015181840152602081019050610f00565b60008484015250505050565b6000601f19601f8301169050919050565b6000610f4382610ee1565b610f4d8185610eec565b9350610f5d818560208601610efd565b610f6681610f27565b840191505092915050565b600060e082019050610f86600083018a610ed2565b8181036020830152610f988189610f38565b90508181036040830152610fac8188610f38565b9050610fbb6060830187610c56565b610fc86080830186610c56565b610fd560a0830185610c56565b81810360c0830152610fe78184610f38565b905098975050505050505050565b610ffe81610d39565b811461100957600080fd5b50565b60008135905061101b81610ff5565b92915050565b6000806040838503121561103857611037610c8a565b5b600061104685828601610cab565b92505060206110578582860161100c565b9150509250929050565b600080fd5b600080fd5b7f4e487b7100000000000000000000000000000000000000000000000000000000600052604160045260246000fd5b6110a382610f27565b810181811067ffffffffffffffff821117156110c2576110c161106b565b5b80604052505050565b60006110d5610c80565b90506110e1828261109a565b919050565b600067ffffffffffffffff8211156111015761110061106b565b5b61110a82610f27565b9050602081019050919050565b82818337600083830152505050565b6000611139611134846110e6565b6110cb565b90508281526020810184848401111561115557611154611066565b5b611160848285611117565b509392505050565b600082601f83011261117d5761117c611061565b5b813561118d848260208601611126565b91505092915050565b60008060008060008060c087890312156111b3576111b2610c8a565b5b60006111c189828a0161100c565b965050602087013567ffffffffffffffff8111156111e2576111e1610c8f565b5b6111ee89828a01611168565b955050604087013567ffffffffffffffff81111561120f5761120e610c8f565b5b61121b89828a01611168565b945050606061122c89828a01610cab565b935050608061123d89828a01610cab565b92505060a087013567ffffffffffffffff81111561125e5761125d610c8f565b5b61126a89828a01611168565b9150509295509295509295565b7f4e487b7100000000000000000000000000000000000000000000000000000000600052602260045260246000fd5b600060028204905060018216806112be57607f821691505b6020821081036112d1576112d0611277565b5b50919050565b7f536f6c6f20696c2063726561746f72652070756f27207072656c657661726500600082015250565b600061130d601f83610eec565b9150611318826112d7565b602082019050919050565b6000602082019050818103600083015261133c81611300565b9050919050565b7f546172676574206e6f6e207261676769756e746f000000000000000000000000600082015250565b6000611379601483610eec565b915061138482611343565b602082019050919050565b600060208201905081810360008301526113a88161136c565b9050919050565b7f4e657373756e20666f6e646f206461207072656c657661726500000000000000600082015250565b60006113e5601983610eec565b91506113f0826113af565b602082019050919050565b60006020820190508181036000830152611414816113d8565b9050919050565b600081905092915050565b50565b600061143660008361141b565b915061144182611426565b600082019050919050565b600061145782611429565b9150819050919050565b7f54726173666572696d656e746f2066616c6c69746f0000000000000000000000600082015250565b6000611497601583610eec565b91506114a282611461565b602082019050919050565b600060208201905081810360008301526114c68161148a565b9050919050565b7f4c612063616d7061676e61206e6f6e20652720616e636f726120636869757361600082015250565b6000611503602083610eec565b915061150e826114cd565b602082019050919050565b60006020820190508181036000830152611532816114f6565b9050919050565b7f496c2074617267657420652720737461746f207261676769756e746f2c206e6960008201527f656e74652072696d626f72736900000000000000000000000000000000000000602082015250565b6000611595602d83610eec565b91506115a082611539565b604082019050919050565b600060208201905081810360008301526115c481611588565b9050919050565b7f4e6f6e2068616920646f6e617a696f6e692064612072696d626f727361726500600082015250565b6000611601601f83610eec565b915061160c826115cb565b602082019050919050565b60006020820190508181036000830152611630816115f4565b9050919050565b7f52696d626f72736f2066616c6c69746f00000000000000000000000000000000600082015250565b600061166d601083610eec565b915061167882611637565b602082019050919050565b6000602082019050818103600083015261169c81611660565b9050919050565b7f4c612063616d7061676e61206527207363616475746100000000000000000000600082015250565b60006116d9601683610eec565b91506116e4826116a3565b602082019050919050565b60006020820190508181036000830152611708816116cc565b9050919050565b7f4e487b7100000000000000000000000000000000000000000000000000000000600052601160045260246000fd5b600061174982610c4c565b915061175483610c4c565b925082820190508082111561176c5761176b61170f565b5b92915050565b7f4c612073636164656e7a61206465766520657373657265206e656c206675747560008201527f726f000000000000000000000000000000000000000000000000000000000000602082015250565b60006117ce602283610eec565b91506117d982611772565b604082019050919050565b600060208201905081810360008301526117fd816117c1565b9050919050565b60008190508160005260206000209050919050565b60006020601f8301049050919050565b600082821b905092915050565b6000600883026118667fffffffffffffffffffffffffffffffffffffffffffffffffffffffffffffffff82611829565b6118708683611829565b95508019841693508086168417925050509392505050565b6000819050919050565b60006118ad6118a86118a384610c4c565b611888565b610c4c565b9050919050565b6000819050919050565b6118c783611892565b6118db6118d3826118b4565b848454611836565b825550505050565b600090565b6118f06118e3565b6118fb8184846118be565b505050565b5b8181101561191f576119146000826118e8565b600181019050611901565b5050565b601f8211156119645761193581611804565b61193e84611819565b8101602085101561194d578190505b61196161195985611819565b830182611900565b50505b505050565b600082821c905092915050565b600061198760001984600802611969565b1980831691505092915050565b60006119a08383611976565b9150826002028217905092915050565b6119b982610ee1565b67ffffffffffffffff8111156119d2576119d161106b565b5b6119dc82546112a6565b6119e7828285611923565b600060209050601f831160018114611a1a5760008415611a08578287015190505b611a128582611994565b865550611a7a565b601f198416611a2886611804565b60005b82811015611a5057848901518255600182019150602085019450602081019050611a2b565b86831015611a6d5784890151611a69601f891682611976565b8355505b6001600288020188555050505b505050505050565b6000611a8d82610c4c565b91507fffffffffffffffffffffffffffffffffffffffffffffffffffffffffffffffff8203611abf57611abe61170f565b5b600182019050919050565b6000611ad582610c4c565b9150611ae083610c4c565b9250828203905081811115611af857611af761170f565b5b9291505056fea2646970667358221220144d5c319bee57d4541e58f0261d5caba65bcce5a084483fd58d16dadc355d9064736f6c634300081c0033",
  "linkReferences": {},
  "deployedLinkReferences": {}
}